:100000000C942A000C943F000C943F000C943F0089
:100010000C943F000C943F000C943F000C943F0064
:100020000C943F000C943F000C943F000C943F0054
:100030000C943F000C943F000C943F000C943F0044
:100040000C943F000C943F000C943F000C943F0034
:100050000C943F0011241FBECFE5D4E0DEBFCDBF1E
:1000600010E0A0E6B0E0E0E1F3E002C005900D9200
:10007000A037B107D9F70E9452010C9486010C9465
:100080000000AE9A00C0AE980895CF93DF93D82FAA
:10009000662311F0AC9A01C0AC98AD9884B38F6020
:1000A00084BBC5B3C07F8D2F82958F708C2B85BB91
:1000B0000E944100DF70DC2BD5BB0E944100CF6065
:1000C000C5BBDF91CF910895882311F0AC9A01C090
:1000D000AC98AD9A84B3807F84BBAE9A00C093B3D2
:1000E000AE9800C0AE9A00C023B32F70892F8295BE
:1000F000807FAE98822B089580E00E946400882360
:10010000DCF300C080E00E9464000895CF93C82F04
:100110000E947C0060E08C2F0E944500CF910895E2
:10012000611104C080580E948600089580540E9486
:100130008600089581E00E9486000895CF93C82F1D
:100140000E947C00CA3049F4803410F080E001C085
:1001500080E480580E94860004C061E08C2F0E94D9
:100160004500CF9108951F93CF93DF93182F84B349
:100170008F6784BB80EA9FE00197F1F7A99AA89A5C
:100180000E94410080EE94E00197F1F70E94410047
:10019000C0E1D0E0CE010197F1F70E944100CE010D
:1001A0000197F1F7A8980E9441002197F1F788E2A2
:1001B0000E94860088E00E9486000E949A0086E0E5
:1001C0000E948600812F0E948600DF91CF911F91AF
:1001D0000895FF920F931F93CF93DF93EB01FA01E2
:1001E00020EFDC012C93FF24FA9401E010E0F88268
:1001F00047E050E0BA01C801042E02C0880F991FE1
:100200000A94E2F78095888300C0808180FF0EC049
:1002100021E030E08081D90190E0022E02C0959566
:1002200087950A94E2F780FD2BC002C0A0E0B0E001
:1002300087EA91E60197F1F700C0000021E030E085
:100240000A2E02C0220F331F0A94E2F7808190E049
:1002500082239323892BD1F387EA91E60197F1F763
:1002600000C0000087E090E0861B970B880F991F65
:10027000880F991F805A9F4FA80FB91F8C910CC0EF
:100280002F5F3F4F2430310529F64150510943304B
:10029000510509F0AFCFABCFDF91CF911F910F91F7
:1002A000FF9008958CE00E94B30060E080E10E941E
:1002B0009000C0E046E350E068E370E087E390E040
:1002C0000E94E9008A3050F4CA3040F4805D0E94F8
:1002D0009E0088E10E948600CF5FECCF8F3041F412
:1002E0000E949A0060E080E10E949000C0E0E2CFAE
:1002F0008C3001F7CC23F1F260E08FE08C0F0E948C
:1003000090008CE10E948600C150D4CFF894FFCFBA
:100310000102030A0405060B0708090D0C000E0F65
:00000001FF
